:020000040800F2
:1000000000500020090B0008D10A0008D70A000898
:1000100000000000000000000000000000000000E0
:10002000000000000000000000000000DD0A0008E1
:100030000000000000000000E70A0008F10A0008C4
:10004000590B0008590B0008590B0008590B000800
:10005000590B0008590B0008590B0008590B0008F0
:10006000590B0008590B0008590B0008590B0008E0
:10007000590B0008590B0008590B0008590B0008D0
:10008000590B0008590B0008590B0008000000002C
:10009000590B0008590B0008590B0008590B0008B0
:1000A000590B0008590B0008590B0008590B0008A0
:1000B000590B0008590B0008590B0008590B000890
:1000C00010B5064C2378002B07D1054B002B02D02E
:1000D000044800E000BF0123237010BD140D002070
:1000E00000000000D02A0008044B10B5002B03D0FC
:1000F0000349044800E000BF10BDC04600000000F6
:10010000180D0020D02A0008002243088B4274D327
:1001100003098B425FD3030A8B4244D3030B8B4208
:1001200028D3030C8B420DD3FF22090212BA030C11
:100130008B4202D31212090265D0030B8B4219D3F2
:1001400000E0090AC30B8B4201D3CB03C01A524112
:10015000830B8B4201D38B03C01A5241430B8B425A
:1001600001D34B03C01A5241030B8B4201D30B0343
:10017000C01A5241C30A8B4201D3CB02C01A52416A
:10018000830A8B4201D38B02C01A5241430A8B422D
:1001900001D34B02C01A5241030A8B4201D30B0216
:1001A000C01A5241CDD2C3098B4201D3CB01C01A30
:1001B000524183098B4201D38B01C01A524143093A
:1001C0008B4201D34B01C01A524103098B4201D328
:1001D0000B01C01A5241C3088B4201D3CB00C01A95
:1001E000524183088B4201D38B00C01A524143080D
:1001F0008B4201D34B00C01A5241411A00D2014632
:10020000524110467047FFE701B5002000F006F8A4
:1002100002BDC0460029F7D076E770477047C04658
:10022000002B11D1002A0FD1002900D1002802D0C3
:100230000021C943080007B4024802A140180290F7
:1002400003BDC046D9FFFFFF03B4684601B502985D
:1002500000F034F8019B9E4602B00CBC7047C046CB
:10026000F0B5CE46474680B5070099463B0C9C4604
:1002700013041B0C1D000E0061460004140C000C3E
:1002800045434B4360436143C0182C0C20188C46F7
:10029000834203D980235B029846C444494679438C
:1002A0007243030C63442D042D0CC918000440193B
:1002B0008918C0BCB946B046F0BDC046F0B5574637
:1002C0004E464546DE46E0B504000D00924699468E
:1002D00083B08B4230D82DD04946504600F0BAF852
:1002E00029000600200000F0B5F8331A9846203B9C
:1002F0009B4633D45A465346934042461F005346CA
:1003000093401E00AF423AD8AF4200D178E05B463E
:10031000A41BBD41002B00DA75E0002200230092EF
:10032000019301235A46934001930123424693408F
:10033000009328E08242CFD900220023009201934B
:100340000C9B002B01D01C605D600098019903B0EC
:10035000F0BCBB46B246A946A046F0BD42462023AB
:100360009B1A5246DA40414613004A468A4017001B
:1003700042461F43534693401E00AF42C4D9002259
:100380000023009201934346002BD9D0FB0772084B
:100390001A4346467B080EE0AB4201D1A2420CD87C
:1003A000A41A9D41012024196D410021013E241809
:1003B0004D41002E06D0AB42EED9013E24196D41CD
:1003C000002EF8D1009801995B4600196941002B75
:1003D00024DB2B005A464446D3402A00E2401C004E
:1003E0005B461500002B2ADB26009E4033002600CA
:1003F0004746BE403200801A9941009001919FE724
:10040000A342BCD883E74246202300219B1A002246
:10041000009101920122DA40019286E742462023B0
:100420009B1A2A0046469A402300F3404446134351
:100430002A00E2401C005B461500002BD4DA42463D
:100440002F002023260097409B1ADE403B003343B9
:10045000CDE7C04610B5002903D100F007F82030E1
:1004600002E0080000F002F810BDC0461C21012384
:100470001B04984201D3000C10391B0A984201D387
:10048000000A08391B09984201D30009043902A265
:10049000105C40187047C0460403020201010101CC
:1004A000000000000000000080B582B000AF00F046
:1004B00055FB00F0CDF800F067F900F035F9574B27
:1004C0004021180000F0ECFD03001A00544B1A60A4
:1004D000534B1B68002B00D098E0524B1B68012B3C
:1004E00000D093E0504B1B68180000F077FAA0236F
:1004F000DB052021180000F0D3FD03001A004B4B50
:100500001A60464B4021180000F0CAFD03001A0093
:10051000434B1A60454B1B68002B0BD1444B1B68A7
:10052000012B07D1434B1A683F4B9200D358180058
:1005300000F054FA3D4B1B68012B19D13C4B1B6852
:10054000002B15D1A023DB058021180000F0A8FDA9
:1005500003001A00384B1A60364B1A68364B19687C
:10056000364B9200D150334B1B685A1C314B1A60EA
:100570002B4B1B68012B0BD12A4B1B68002B07D17F
:10058000294BDB6F012B0CD1002000F027FA08E08B
:10059000264B1A68264B1A60214B1A68214B1A60A9
:1005A000A5E7C046254BDB68002B18D0234B9B6882
:1005B000002B14D1214B5B68002B10D100237B60F2
:1005C00007E0194B7A6892000021D1507B68013313
:1005D0007B607B681F2BF4DD194B01221A60184BDE
:1005E0001B68002B12D0174B1A68174B9200D0587B
:1005F000144B1A68154B9200D3580022190000F0D2
:1006000053F9104B1B685A1C0E4B1A60094B002201
:100610001A60034B1A68034B1A6050E7000400503D
:10062000B80D0020BC0D002000000020C00D0020EF
:10063000C40D0020CC0D0020C80D0020D00D0020DE
:10064000500E0020540E002080000020C406002020
:1006500090B59FB000AF40243B19180038231A0012
:10066000002102F02DFA2C23FB18180014231A0085
:10067000002102F025FA3B1D180028231A00002152
:1006800002F01EFA264B1B68264A1A40244B802192
:1006900009010A431A6021007B1810221A607B1896
:1006A0000122DA617B1800221A627B18A022120252
:1006B0005A627B1800229A627B18180000F02AFD0B
:1006C000031E01D000F0A6F92C217B180F221A601E
:1006D0007B1800225A607B1800229A607B18002247
:1006E000DA607B1800221A617B180021180001F0E3
:1006F000E5F8031E01D000F08DF93B1D02221A60BF
:100700003B1D00221A613B1D180001F0FBFA031E7D
:1007100001D000F07FF9C046BD461FB090BDC04675
:1007200000700040FFE7FFFF80B500AF144B154A93
:100730001A60134BE12252025A60114B00229A6058
:100740000F4B0022DA600E4B00221A610C4B0C2278
:100750005A610B4B00229A61094B0022DA61084B67
:1007600000221A62064B00225A62054B180001F063
:1007700067FC031E01D000F04DF9C046BD4680BDA8
:10078000300D00200044004090B58BB000AF142421
:100790003B19180014231A00002102F091F93F4B75
:1007A000DA6A3E4B04210A43DA623C4BDB6A0422DC
:1007B00013403B613B69394BDA6A384B80210A436D
:1007C000DA62364BDB6A80221340FB60FB68334BF6
:1007D000DA6A324B01210A43DA62304BDB6A0122CA
:1007E0001340BB60BB682D4BDA6A2C4B02210A43D5
:1007F000DA622A4BDB6A022213407B607B68A0230B
:10080000DB0500224021180000F067FC3B19802224
:1008100092011A603B19842292035A603B1900220C
:100820009A603B191E4A1900100000F0BBFA3B19F0
:10083000A0221A603B1900225A603B1900229A60DC
:100840003A19A023DB051100180000F0ABFA3B19A0
:1008500040221A603B1901225A603B1900229A601B
:100860003B190022DA603A19A023DB0511001800B9
:1008700000F098FA3B1940221A603B1900225A6096
:100880003B1900229A603B19064A1900100000F03B
:1008900089FAC046BD460BB090BDC046001002406C
:1008A000000800500004005080B584B000AFF8602C
:1008B000B9607A60FB6801221A40474BDA63FB6833
:1008C0005B1001221A40444B9A63FB689B10012283
:1008D0001A40414B5A63FB68DB1001221A403E4B21
:1008E0001A63FB681B1101221A403B4BDA62FB685A
:1008F0005B1101221A40384B9A62FB689B1101225E
:100900001A40354B5A62FB68DB1101221A40324B08
:100910001A62BB6801221A402F4BDA65BB685B1074
:1009200001221A402C4B9A65BB689B1001221A4089
:10093000294B5A65BB68DB1001221A40264B1A6509
:10094000BB681B1101221A40234BDA64BB685B11A0
:1009500001221A40204B9A64BB689B1101221A4065
:100960001D4B5A64BB68DB1101221A401A4B1A64F2
:100970007B6801221A40184BDA677B685B10012202
:100980001A40154B9A677B689B1001221A40124B44
:100990005A677B68DB1001221A400F4B1A677B688D
:1009A0001B1101221A400C4BDA667B685B11012295
:1009B0001A40094B9A667B689B1101221A40064B2C
:1009C0005A667B68DB1101221A40034B1A66C04647
:1009D000BD4604B080BDC0460000002080B582B096
:1009E00000AF78607B68002B06D1A023DB050022D6
:1009F0004021180000F071FB7B68012B06D1A02379
:100A0000DB0501224021180000F067FBC046BD460F
:100A100002B080BD80B500AF72B6C046FEE70000F0
:100A200080B500AF074B5A6B064B01210A435A634E
:100A3000044B9A6B034B802149050A439A63C046D5
:100A4000BD4680BD0010024090B589B000AF78600F
:100A50000C243B19180014231A00002102F030F86E
:100A60007B681B68184A934229D1184B9A6B174B25
:100A7000802189020A439A63144BDA6A134B0121DD
:100A80000A43DA62114BDB6A01221340BB60BB6888
:100A900021007B180C221A607B1802225A607B18F6
:100AA00000229A607B180322DA607B1804221A6104
:100AB0007A18A023DB051100180000F073F9C04676
:100AC000BD4609B090BDC046004400400010024041
:100AD00080B500AFFEE780B500AFFEE780B500AFA0
:100AE000C046BD4680BD80B500AFC046BD4680BD96
:100AF00080B500AF00F086F8C046BD4680BD80B529
:100B000000AFC046BD4680BD0D488546FFF7F7FFE4
:100B10000C480D490D4A002302E0D458C450043358
:100B2000C4188C42F9D30A4A0A4C002301E013602E
:100B30000432A242FBD301F09FFFFFF7B5FCFEE7B2
:100B40000050002000000020140D0020642B00083D
:100B5000140D00205C0E0020FEE7000080B582B07E
:100B600000AFFB1D00221A700B4B1A680A4B402184
:100B70000A431A60002000F011F8031E03D0FB1D89
:100B800001221A7001E0FFF74BFFFB1D1B781800D4
:100B9000BD4602B080BDC0460020024090B583B083
:100BA00000AF7860144B1C68144B1B781900FA23B3
:100BB0009800FFF7A9FA030019002000FFF7A4FA34
:100BC0000300180000F0E1F8031E01D001230FE03C
:100BD0007B68032B0BD8796801235B420022180045
:100BE00000F0BEF8064B7A681A60002300E001238B
:100BF0001800BD4603B090BD080D0020100D002068
:100C00000C0D002080B500AF054B1B781A00054B7A
:100C10001B68D218034B1A60C046BD4680BDC04653
:100C2000100D0020580E002080B500AF024B1B684D
:100C30001800BD4680BDC046580E002090B583B058
:100C400000AF02003960FB1D1A70FB1D1B787F2B63
:100C500028D82F4AFB1D1B785BB29B08C0339B0032
:100C60009B58FA1D1278110003220A40D200FF217E
:100C700091400A00D2431A4011003B689B01FF22B9
:100C80001A40FB1D1B78180003230340DB009A4029
:100C90001F48FB1D1B785BB29B080A43C0339B00B7
:100CA0001A5031E01B4AFB1D1B7819000F230B4023
:100CB000083B9B0806339B00D31804331B68FA1DBE
:100CC0001278110003220A40D200FF2191400A004D
:100CD000D2431A4011003B689B01FF221A40FB1DC2
:100CE0001B78180003230340DB009A400948FB1DD2
:100CF0001B781C000F232340083B9B080A43063344
:100D00009B00C31804331A60C046BD4603B090BDB3
:100D100000E100E000ED00E080B582B000AF786057
:100D20007B685A1E80235B049A4201D3012310E0A2
:100D30000A4B7A68013A5A6001235B42032118008A
:100D4000FFF77CFF054B00229A60044B07221A60D4
:100D500000231800BD4602B080BDC04610E000E090
:100D600080B584B000AFB9607A600F217B18021C97
:100D70001A70BA687B181B785BB211001800FFF775
:100D80005DFFC046BD4604B080BD80B582B000AFF7
:100D900078607B681800FFF7BFFF03001800BD46AE
:100DA00002B080BD80B586B000AF786039600023A6
:100DB0007B610023FB6000233B6155E13B681B68BE
:100DC00001217A6991400A001340FB60FB68002B07
:100DD00000D146E13B685B6803221340012B05D03C
:100DE0003B685B6803221340022B30D17B689B6811
:100DF0003B617B695B0003229A401300DA433B6945
:100E000013403B613B68DA687B695B009A401300E2
:100E10003A6913433B617B683A699A607B685B6817
:100E20003B6101227B699A401300DA433B6913401E
:100E30003B613B685B681B0901221A407B699A4051
:100E400013003A6913433B617B683A695A603B6817
:100E50005B6803221340032B17D07B68DB683B6180
:100E60007B695B0003229A401300DA433B6913401D
:100E70003B613B689A687B695B009A4013003A6962
:100E800013433B617B683A69DA603B685B68032225
:100E90001340022B23D17B69DA087B680832920069
:100EA000D3583B617B69072213409B000F229A4075
:100EB0001300DA433B6913403B613B681A697B6965
:100EC00007210B409B009A4013003A6913433B6192
:100ED0007B69DA087B68083292003969D1507B68F7
:100EE0001B683B617B695B0003229A401300DA4375
:100EF0003B6913403B613B685B6803221A407B6996
:100F00005B009A4013003A6913433B617B683A697E
:100F10001A603B685A68C0239B02134000D1A0E0CE
:100F2000574B5A6B564B01210A435A63554A7B690A
:100F30009B0802339B009B583B617B690322134053
:100F40009B000F229A401300DA433B6913403B6138
:100F50007A68A023DB059A421FD07B684A4A9342F5
:100F600019D07B68494A934213D07B68484A934220
:100F70000DD07B68474A934207D07B68464A93422C
:100F800001D105230AE0062308E0042306E0032339
:100F900004E0022302E0012300E000237A69032138
:100FA0000A40920093403A6913433B6135497B699B
:100FB0009B0802339B003A695A50384B9B683B614F
:100FC000FB68DA433B6913403B613B685A68802306
:100FD0005B03134003D03A69FB6813433B612F4B1B
:100FE0003A699A602D4BDB683B61FB68DA433B69E9
:100FF00013403B613B685A6880239B03134003D036
:101000003A69FB6813433B61244B3A69DA60234B2E
:101010005B683B61FB68DA433B6913403B613B68BB
:101020005A6880239B02134003D03A69FB6813433C
:101030003B611A4B3A695A60184B1B683B61FB686D
:10104000DA433B6913403B613B685A6880235B028B
:10105000134003D03A69FB6813433B610F4B3A6975
:101060001A607B6901337B613B681A687B69DA40EF
:10107000131E00D0A2E6C046C046BD4606B080BDE5
:101080000010024000000140000400500008005021
:10109000000C005000100050001C005000040140E3
:1010A00080B584B000AF78600A00BB1C1A807B68F2
:1010B0001B69BA1C1288134004D00F23FB180122AD
:1010C0001A7003E00F23FB1800221A700F23FB187D
:1010D0001B781800BD4604B080BD80B582B000AF5B
:1010E000786008001100BB1C021C1A807B1C0A1CC3
:1010F0001A707B1C1B78002B04D0BB1C1A887B68E1
:101100009A6103E0BB1C1A887B689A62C046BD46A0
:1011100002B080BDB0B58AB000AF78607B68002BAC
:1011200002D1012300F0BFFBC94BDB680C22134046
:10113000FB61C74BDA6880235B021340BB617B68AD
:101140001B680122134000D17EE0FB69082B07D009
:10115000FB690C2B12D1BA6980235B029A420DD134
:10116000BB4B1A6880239B02134000D16BE07B6865
:101170005B68002B67D1012300F095FB7B685A6800
:1011800080235B029A4207D1B14B1A68B04B802191
:1011900049020A431A6027E07B685A68A023DB02F1
:1011A0009A420ED1AA4B1A68A94B8021C9020A4360
:1011B0001A60A74B1A68A64B802149020A431A609D
:1011C00012E0A34B1A68A24BA2490A401A60A04B36
:1011D0001A6880235B021340FB60FB689C4B1A6813
:1011E0009B4B9D490A401A607B685B68002B15D0B9
:1011F000FFF71AFD03007B6109E0FFF715FD020010
:101200007B69D31A642B02D9032300F04CFB904B6B
:101210001A6880239B021340EFD015E0FFF704FD0E
:1012200003007B6108E0FFF7FFFC02007B69D31A33
:10123000642B01D9032336E3854B1A6880239B0274
:101240001340F0D100E0C0467B681B6802221340C7
:1012500000D199E07B68DB687B627B6A20221340C7
:1012600009D07B4B1A687A4B20210A431A607B6AAB
:10127000202293437B62FB69042B05D0FB690C2B76
:101280003ED1BB69002B3BD1714B1B68042213403C
:1012900004D07B6A002B01D1012304E36C4B5B6813
:1012A0006E4A134019007B681B691A02684B0A4397
:1012B0005A60674B1B68092293431900644B7A6A92
:1012C0000A431A6000F042FC0100614BDB681B0915
:1012D0000F221340624AD35C0A00DA40614B1A6065
:1012E000614B1B6813257C191800FFF757FC03009E
:1012F00023707B191B78002B46D07B191B78D2E218
:101300007B6A002B27D0524B1B680922934319009C
:101310004F4B7A6A0A431A60FFF786FC03007B6131
:1013200008E0FFF781FC02007B69D31A022B01D988
:101330000323B8E2464B1B6804221340F1D0444B10
:101340005B68464A134019007B681B691A02404BD0
:101350000A435A6018E03E4B1A683D4B01218A430C
:101360001A60FFF761FC03007B6108E0FFF75CFC9B
:1013700002007B69D31A022B01D9032393E2344B79
:101380001B6804221340F1D17B681B6810221340B4
:1013900000D1A2E0FB69002B40D12D4B1A688023BD
:1013A0009B00134005D07B68DB69002B01D1012332
:1013B00079E2274B5B682D4A134019007B685A6A13
:1013C000234B0A435A60224B5B681B02190A7B6855
:1013D0001B6A1A061E4B0A435A607B685B6A5B0BEA
:1013E0000133802212029A40194BDB681B090F213E
:1013F0000B401B49CB5CDA401A4B1A601A4B1B6836
:1014000013257C191800FFF7C9FB030023707B1913
:101410001B78002B61D07B191B7844E27B68DB6969
:10142000002B40D00A4B1A68094B802149000A431F
:101430001A60FFF7F9FB03007B6119E0FFF7F4FB8B
:1014400002007B69D31A022B12D903232BE2C04678
:1014500000100240FFFFFEFFFFFFFBFFFFE0FFFF6A
:10146000E82A0008080D00200C0D0020FF1FFFFFD8
:10147000CA4B1A6880239B001340DFD0C74B5B68C0
:10148000C74A134019007B685A6AC44B0A435A6022
:10149000C24B5B681B02190A7B681B6A1A06BF4BAA
:1014A0000A435A6019E0BD4B1A68BC4BBD490A405B
:1014B0001A60FFF7B9FB03007B6108E0FFF7B4FB9C
:1014C00002007B69D31A022B01D90323EBE1B34B52
:1014D0001A6880239B001340F0D17B681B680822A8
:1014E000134036D07B685B69002B19D0AB4B1A6D6B
:1014F000AA4B01210A431A65FFF796FB03007B61A3
:1015000008E0FFF791FB02007B69D31A022B01D997
:101510000323C8E1A14B1B6D02221340F1D018E058
:101520009E4B1A6D9D4B01218A431A65FFF77CFB88
:1015300003007B6108E0FFF777FB02007B69D31AA9
:10154000022B01D90323AEE1944B1B6D0222134001
:10155000F1D17B681B680422134000D1AEE0232048
:101560003B1800221A708D4B9A6B80235B05134049
:1015700009D18A4B9A6B894B802149050A439A63AA
:101580003B1801221A70884B1A6880235B001340B5
:101590001AD1854B1A68844B802149000A431A608E
:1015A000FFF742FB03007B6108E0FFF73DFB020011
:1015B0007B69D31A642B01D9032374E17A4B1A682F
:1015C00080235B001340F0D07B689A6880235B0027
:1015D0009A4207D1714B1A6D704B802149000A4322
:1015E0001A6531E07B689B68002B0CD16B4B1A6D40
:1015F0006A4B6C490A401A65684B1A6D674B6B4918
:101600000A401A6520E07B689A68A023DB009A42B2
:101610000ED1624B1A6D614B8021C9000A431A65D5
:101620005E4B1A6D5D4B802149000A431A650BE041
:101630005A4B1A6D594B5B490A401A65574B1A6D44
:10164000564B5A490A401A657B689B68002B15D097
:10165000FFF7EAFA03007B6109E0FFF7E5FA020011
:101660007B69D31A524A934201D903231BE14B4BA6
:101670001A6D80239B001340EFD014E0FFF7D4FADB
:1016800003007B6109E0FFF7CFFA02007B69D31A00
:10169000474A934201D9032305E1404B1A6D802349
:1016A0009B001340EFD12323FB181B78012B05D19E
:1016B0003A4B9A6B394B3F490A409A637B681B68E7
:1016C0002022134049D07B689B69002B26D0334BE6
:1016D0009A68324B01210A439A60304B5A6B2F4B68
:1016E00001210A435A63344B1A6A334B8021890122
:1016F0000A431A62FFF798FA03007B6108E0FFF7DC
:1017000093FA02007B69D31A022B01D90323CAE0A2
:10171000224B9B6802221340F1D01EE01F4B9A68B7
:101720001E4B01218A439A60234B1A6A224B23499C
:101730000A401A62FFF778FA03007B6108E0FFF7BE
:1017400073FA02007B69D31A022B01D90323AAE0A2
:10175000124B9B6802221340F1D17B689B6A002BDD
:1017600000D19FE0FB690C2B00D178E07B689B6A7D
:10177000022B59D1094B1A68084B11490A401A60CB
:10178000FFF752FA03007B611CE0FFF74DFA0200FD
:101790007B69D31A022B15D9032384E00010024081
:1017A000FF1FFFFFFFFEFFFF00700040FFFBFFFF7A
:1017B00088130000FFFFFFEF00000140FFDFFFFF85
:1017C000FFFFFFFE3A4B1A6880239B041340DCD1D5
:1017D000374BDB68374A134019007B68DA6A7B684D
:1017E0001B6B1A437B685B6B1A43314B0A43DA600D
:1017F0002F4B1A682E4B802149040A431A60FFF7C9
:1018000013FA03007B6108E0FFF70EFA02007B6920
:10181000D31A022B01D9032345E0254B1A688023F4
:101820009B041340F0D03DE0214B1A68204B224925
:101830000A401A60FFF7F8F903007B6108E0FFF740
:10184000F3F902007B69D31A022B01D903232AE0A2
:10185000174B1A6880239B041340F0D122E07B6869
:101860009B6A012B01D101231DE0114BDB68BB6199
:10187000BA6980235B021A407B68DB6A9A420FD107
:10188000BA69F0239B031A407B681B6B9A4207D10D
:10189000BA69C0231B041A407B685B6B9A4201D073
:1018A000012300E000231800BD460AB0B0BDC046C9
:1018B00000100240FFFF02FFFFFFFFFEB0B584B043
:1018C00000AF786039607B68002B01D1012328E1EB
:1018D000964B1B68012213403A689A421ED9934BDB
:1018E0001B68012293431900904B3A680A431A601F
:1018F000FFF79AF90300FB6009E0FFF795F9020092
:10190000FB68D31A8A4A934201D9032309E1874B22
:101910001B68012213403A689A42EED17B681B682B
:101920000222134009D0834BDB68F0229343190055
:101930007B689A687F4B0A43DA607B681B680122E8
:10194000134000D189E07B685B68022B07D1794B9B
:101950001A6880239B02134020D10123E1E07B68B9
:101960005B68032B07D1734B1A6880239B041340D9
:1019700014D10123D5E07B685B68012B06D16D4B48
:101980001B680422134009D10123CAE0694B1A687D
:1019900080239B00134001D10123C2E0654BDB682B
:1019A0000322934319007B685A68624B0A43DA604A
:1019B000FFF73AF90300FB607B685B68022B11D1EB
:1019C00009E0FFF731F90200FB68D31A584A934245
:1019D00001D90323A5E0574BDB680C221340082BE9
:1019E000EFD13AE07B685B68032B11D109E0FFF788
:1019F0001BF90200FB68D31A4D4A934201D9032315
:101A00008FE04C4BDB680C2213400C2BEFD124E011
:101A10007B685B68012B1BD109E0FFF705F9020029
:101A2000FB68D31A424A934201D9032379E0414B20
:101A3000DB680C221340042BEFD10EE0FFF7F4F823
:101A40000200FB68D31A3A4A934201D9032368E0A3
:101A5000384BDB680C221340F0D1344B1B68012259
:101A600013403A689A421ED2304B1B6801229343BE
:101A700019002E4B3A680A431A60FFF7D5F80300A5
:101A8000FB6009E0FFF7D0F80200FB68D31A284A90
:101A9000934201D9032344E0244B1B6801221340E5
:101AA0003A689A42EED17B681B680422134009D041
:101AB000204BDB68204A134019007B68DA681D4B15
:101AC0000A43DA607B681B68082213400AD0194B6E
:101AD000DB681A4A134019007B681B69DA00154B52
:101AE0000A43DA6000F032F80100124BDB681B0990
:101AF0000F221340124AD35C0A00DA40114B1A60DD
:101B0000114B1B680B257C191800FFF747F80300E1
:101B100023707B191B78002B02D07B191B7800E007
:101B200000231800BD4604B0B0BDC04600200240EE
:101B30008813000000100240FFF8FFFFFFC7FFFFFF
:101B4000E82A0008080D00200C0D0020B0B58EB06A
:101B500000AF4C4BDB68FB62FA6A0C2313400C2B82
:101B600014D000D97BE0042B02D0082B0BD076E0F8
:101B7000444B1B681022134002D0434B3B637CE074
:101B8000424B3B6379E0424B3B6376E0FB6A9A0C45
:101B90000F231A403F4B9B5CBB62FB6A9A0D0323E9
:101BA000134001337B62374BDA6880235B021340BA
:101BB0001AD0BB6ABB610023FB61354A0023B869B8
:101BC000F969FEF74DFB02000B00100019007B6A5B
:101BD0003B6100237B613A697B69FEF721FB0200D0
:101BE0000B0013007B6337E0264B1B681022134069
:101BF0001AD0BB6ABB600023FB60234A0023B8688D
:101C0000F968FEF72DFB02000B00100019007B6A3B
:101C10003B6000237B603A687B68FEF701FB0200B3
:101C20000B0013007B6317E0BB6A18000023190048
:101C3000164A0023FEF714FB02000B0010001900E7
:101C40007B6A1C0000231D0022002B00FEF7E8FA2F
:101C500002000B0013007B637B6B3B630DE0094BC1
:101C60005B685B0B072213403B623B6A01338022B7
:101C700012029A4013003B63C0463B6B1800BD46FE
:101C80000EB0B0BD0010024000093D000024F40079
:101C900000127A00002B000880B500AF024B1B68D1
:101CA0001800BD4680BDC046080D002080B500AFBD
:101CB000FFF7F2FF0100064BDB681B0A0722134007
:101CC000044AD35CD9400B001800BD4680BDC04615
:101CD00000100240F82A000880B500AFFFF7DCFFD3
:101CE0000100064BDB68DB0A07221340044AD35C81
:101CF000D9400B001800BD4680BDC0460010024010
:101D0000F82A000880B586B000AF78601723FB186A
:101D100000221A707B681B682022134006D17B6862
:101D20001A6880231B01134000D104E1B94B9A6B60
:101D300080235B0513400AD1B64B9A6BB54B8021CB
:101D400049050A439A631723FB1801221A70B24B04
:101D50001A6880235B0013401AD1AF4B1A68AE4B50
:101D6000802149000A431A60FEF75EFF03003B61D1
:101D700008E0FEF759FF02003B69D31A642B01D932
:101D8000032343E1A44B1A6880235B001340F0D087
:101D9000A04B1A68C0239B031340FB607B685A6802
:101DA000C0239B031340FA689A4207D17B689A6864
:101DB000C0239B031340FA689A4213D07B685A6889
:101DC000C0239B021A40C0239B029A420AD1914B26
:101DD0001A6880239B021A4080239B029A4201D1F9
:101DE000012313E18B4B1A6DC0239B021340FB6050
:101DF000FB68002B49D07B685A68C0239B021340C4
:101E0000FA689A4204D07B681B68202213400DD1E7
:101E10007B689A68C0239B021340FA689A4234D0C8
:101E20007B681A6880231B0113402ED0794B1B6DF1
:101E30007A4A1340FB60774B1A6D764B8021090379
:101E40000A431A65734B1A6D724B75490A401A653D
:101E5000704BFA681A65FA6880235B00134014D04F
:101E6000FEF7E2FE03003B6109E0FEF7DDFE020043
:101E70003B69D31A6B4A934201D90323C6E0654BF1
:101E80001A6D80239B001340EFD07B681A68802373
:101E90001B0113401FD07B689A68C0239B021A4025
:101EA000C0239B029A420CD15A4B1B685E4A1340D6
:101EB00019007B689A68C0239B031A40554B0A435C
:101EC0001A60544B196D7B689A68C0239B021A40B4
:101ED000504B0A431A657B681B68202213401FD0B1
:101EE0007B685A68C0239B021A40C0239B029A4217
:101EF0000CD1484B1B684C4A134019007B685A6848
:101F0000C0239B031A40434B0A431A60414B196D8F
:101F10007B685A68C0239B021A403E4B0A431A65ED
:101F20001723FB181B78012B05D13A4B9A6B394BC1
:101F30003E490A409A637B681B680122134009D01E
:101F4000344BDB6C0322934319007B68DA68314B16
:101F50000A43DA647B681B680222134009D02D4BC8
:101F6000DB6C0C22934319007B681A69294B0A43E6
:101F7000DA647B681B680422134009D0254BDB6CB4
:101F80002B4A134019007B685A69224B0A43DA64D2
:101F90007B681B680822134009D01E4BDB6C254A66
:101FA000134019007B689A691A4B0A43DA647B680C
:101FB0001A6880235B00134009D0164BDB6C174A6C
:101FC000134019007B68DA69124B0A43DA647B68B4
:101FD0001B684022134009D00E4BDB6C164A13409D
:101FE00019007B685A6A0B4B0A43DA647B681B68EA
:101FF0008022134009D0074BDB6C104A13401900B4
:102000007B681A6A034B0A43DA6400231800BD4652
:1020100006B080BD0010024000700040FFFFFCFFD2
:10202000FFFFF7FF88130000FFFFCFFFFFFFFFEF69
:10203000FFF3FFFFFFCFFFFFFFFFFFFBFFFFF3FFFC
:1020400080B582B000AF78607B68002B01D101239E
:1020500044E07B68DB6F002B07D17B68782200218E
:1020600099547B681800FEF7EFFC7B682422DA673E
:102070007B681B681A687B681B6801218A431A60A9
:102080007B68180000F030F80300012B01D1012318
:1020900024E07B685B6A002B03D07B68180000F0AB
:1020A000C1FA7B681B685A687B681B680D490A4047
:1020B0005A607B681B689A687B681B682A218A4380
:1020C0009A607B681B681A687B681B6801210A4359
:1020D0001A607B68180000F059FB03001800BD4629
:1020E00002B080BDFFB7FFFFB0B58EB000AFF861A2
:1020F0001A2318229B18DB1900221A70FB699A68B0
:10210000FB691B691A43FB695B691A43FB69DB695D
:1021100013437B63FB691B681B68C34A13401900A8
:10212000FB691B687A6B0A431A60FB691B685B6872
:10213000BE4A13401900FB69DA68FB691B680A4351
:102140005A60FB699B697B63FB691B68B84A9342D1
:1021500004D0FB691B6A7A6B13437B63FB691B68C2
:102160009B68B44A13401900FB691B687A6B0A43E9
:102170009A60FB691B68B04A934231D1AF4BDB6C6C
:1021800003221340032B1DD023D8022B0CD020D8C0
:10219000002B02D0012B0ED01BE01B2318229B1812
:1021A000DB1901221A70B4E01B2318229B18DB19DB
:1021B00002221A70ADE01B2318229B18DB1904229F
:1021C0001A70A6E01B2318229B18DB1908221A702C
:1021D0009FE01B2318229B18DB1910221A7098E02D
:1021E000FB691B68964A934231D1944BDB6C0C22FD
:1021F00013400C2B1DD023D8082B0CD020D8002B3B
:1022000002D0042B0ED01BE01B2318229B18DB19D5
:1022100000221A707DE01B2318229B18DB19022272
:102220001A7076E01B2318229B18DB1904221A70FF
:102230006FE01B2318229B18DB1908221A7068E034
:102240001B2318229B18DB1910221A7061E0FB690E
:102250001B687C4A934206D11B2318229B18DB196A
:1022600000221A7055E0FB691B68774A934206D139
:102270001B2318229B18DB1900221A7049E0FB6906
:102280001B686B4A93423ED16C4BDA6CC0231B0136
:102290001340C0221201934227D0C0221201934260
:1022A0002AD880221201934211D080221201934237
:1022B00022D8002B04D08022D20093420ED01BE003
:1022C0001B2318229B18DB1900221A7021E01B2304
:1022D00018229B18DB1902221A701AE01B231822FD
:1022E0009B18DB1904221A7013E01B2318229B1879
:1022F000DB1908221A700CE01B2318229B18DB192B
:1023000010221A7005E01B2318229B18DB191022DB
:102310001A70FB691B68464A934200D09AE01B235F
:1023200018229B18DB191B78082B1DD020DC042BEE
:1023300015D01DDC002B02D0022B05D018E0FFF7D2
:10234000B5FC0300FB621CE03C4B1B6810221340F1
:1023500002D03E4BFB6214E03D4BFB6211E0FFF705
:10236000F5FB0300FB620CE080231B02FB6208E02C
:102370000023FB621A2318229B18DB1901221A7012
:10238000C046FB6A002B00D133E1FB695A68130099
:102390005B009B18FA6A9A4205D3FB695B681B03D2
:1023A000FA6A9A4206D91A2318229B18DB190122CD
:1023B0001A701EE1FB6A3B6100237B6139697A690F
:1023C0000B001B0E100005021D430B001C02FB69D5
:1023D0005B685B08BB600023FB60B868F9680019A4
:1023E0006941FB695B683B6000237B603A687B68FE
:1023F000FDF716FF02000B001300BB62BA6AC02390
:102400009B009A4209D3BA6A80235B039A4204D2A2
:10241000FB691B68BA6ADA60EBE01A2318229B1882
:10242000DB1901221A70E4E0F369FFEFFFCFFFFF31
:1024300000480040FFF4FFFF003801400010024058
:1024400000440040004C00400050004000093D00A6
:102450000024F400FB69DA6980231B029A4200D051
:1024600070E01B2318229B18DB191B78082B22D83D
:102470009A00674BD3181B689F46FFF717FC0300B1
:10248000FB6221E0FFF728FC0300FB621CE0614BCC
:102490001B681022134002D05F4BFB6214E05F4BBD
:1024A000FB6211E0FFF752FB0300FB620CE08023AC
:1024B0001B02FB6208E00023FB621A2318229B1810
:1024C000DB1901221A70C046FB6A002B00D190E094
:1024D000FB6A5A00FB695B685B08D218FB695B68A2
:1024E00019001000FDF710FE0300BB62BB6A0F2B42
:1024F00021D9BA6A80235B029A421CD2BB6A9AB283
:102500000E2018240319DB190F218A431A80BB6A95
:102510005B089BB20722134099B20319DB19021919
:10252000D21912880A431A80FB691B680219D21952
:102530001288DA605DE01A2318229B18DB19012249
:102540001A7056E01B2318229B18DB191B78082BE6
:1025500022D89A00324BD3181B689F46FFF7A6FB80
:102560000300FB6221E0FFF7B7FB0300FB621CE006
:10257000284B1B681022134002D0274BFB6214E04B
:10258000264BFB6211E0FFF7E1FA0300FB620CE06F
:1025900080231B02FB6208E00023FB621A2318223F
:1025A0009B18DB1901221A70C046FB6A002B20D051
:1025B000FB695B685A08FB6AD218FB695B68190003
:1025C0001000FDF7A1FD0300BB62BB6A0F2B0AD907
:1025D000BA6A80235B029A4205D2BB6A9AB2FB694F
:1025E0001B68DA6005E01A2318229B18DB19012208
:1025F0001A70FB6900229A66FB690022DA661A23C8
:1026000018229B18DB191B781800BD460EB0B0BD10
:102610000C2B00080010024000093D000024F400CB
:10262000302B000880B582B000AF78607B685B6AB1
:10263000012213400BD07B681B685B684A4A134039
:1026400019007B689A6A7B681B680A435A607B683A
:102650005B6A022213400BD07B681B685B68434AAD
:10266000134019007B68DA6A7B681B680A435A606A
:102670007B685B6A042213400BD07B681B685B6835
:102680003B4A134019007B681A6B7B681B680A433E
:102690005A607B685B6A082213400BD07B681B681A
:1026A0005B68344A134019007B685A6B7B681B686F
:1026B0000A435A607B685B6A102213400BD07B6828
:1026C0001B689B682C4A134019007B689A6B7B68D7
:1026D0001B680A439A607B685B6A202213400BD018
:1026E0007B681B689B68254A134019007B68DA6B7E
:1026F0007B681B680A439A607B685B6A40221340D0
:102700001DD07B681B685B681D4A134019007B68FD
:102710001A6C7B681B680A435A607B681A6C8023BA
:102720005B039A420BD17B681B685B68154A1340B8
:1027300019007B685A6C7B681B680A435A607B6887
:102740005B6A802213400BD07B681B685B680E4A73
:10275000134019007B689A6C7B681B680A435A60B7
:10276000C046BD4602B080BDFFFFFDFFFFFFFEFF7C
:10277000FFFFFBFFFF7FFFFFFFEFFFFFFFDFFFFF1D
:10278000FFFFEFFFFFFF9FFFFFFFF7FF80B592B056
:1027900002AF78607B68842200219950FEF744FAEA
:1027A0000300FB637B681B681B6808221340082B2F
:1027B0002CD1FB6B802291037868464A009200225C
:1027C00000F08CF8031E21D0EFF310837B627B6A4C
:1027D000BB630123BB62BB6A83F31088C0467B687E
:1027E0001B681A687B681B6880218A431A60BB6B70
:1027F000FB62FB6A83F31088C0467B682022DA679D
:102800007B6878220021995403235FE07B681B6872
:102810001B6804221340042B46D1FB6B8022D1039A
:1028200078682C4A0092002200F058F8031E3BD032
:10283000EFF31083FB60FB687B6301233B613B6923
:1028400083F31088C0467B681B681A687B681B6826
:1028500021490A401A607B6B7B617B6983F3108896
:10286000C046EFF31083BB61BB693B630123FB618F
:10287000FB6983F31088C0467B681B689A687B6895
:102880001B6801218A439A603B6B3B623B6A83F37E
:102890001088C0467B688022202199507B6878226E
:1028A00000219954032311E07B682022DA677B68BA
:1028B0008022202199507B6800221A667B680022C2
:1028C0005A667B6878220021995400231800BD467F
:1028D00010B080BDFFFFFF01DFFEFFFF80B584B0B9
:1028E00000AFF860B9603B60FB1D1A704BE0BB693C
:1028F000013348D0FEF798F902003B68D31ABA6951
:102900009A4202D3BB69002B01D103234BE0FB6841
:102910001B681B680422134035D0FB681B68DB6909
:1029200008221340082B11D1FB681B6808221A6289
:10293000FB68180000F03CF8FB68842208219950DD
:10294000FB6878220021995401232CE0FB681B6866
:10295000DA6980231B011A4080231B019A4212D19D
:10296000FB681B68802212011A62FB68180000F0E5
:102970001FF8FB68842220219950FB6878220021EF
:10298000995403230FE0FB681B68DB69BA681340A6
:10299000BA68D31A5A425341DBB21A00FB1D1B78A6
:1029A0009A42A4D000231800BD4604B080BD0000A8
:1029B00080B58EB000AF7860EFF310837B617B69E8
:1029C0007B630123BB61BB6983F31088C0467B68CE
:1029D0001B681A687B681B6826490A401A607B6B73
:1029E000FB61FB6983F31088C046EFF310833B6201
:1029F0003B6A3B6301237B627B6A83F31088C0469A
:102A00007B681B689A687B681B6801218A439A600F
:102A10003B6BBB62BB6A83F31088C0467B681B6E4E
:102A2000012B18D1EFF31083BB60BB68FB6201235D
:102A3000FB60FB6883F31088C0467B681B681A68DC
:102A40007B681B6810218A431A60FB6A3B613B6903
:102A500083F31088C0467B688022202199507B68D0
:102A600000221A667B6800229A66C046BD460EB0F8
:102A700080BDC046DFFEFFFF70B500260C4D0D4C3B
:102A8000641BA410A64209D1002600F021F80A4DCB
:102A90000A4C641BA410A64205D170BDB300EB58CC
:102AA00098470136EEE7B300EB5898470136F2E756
:102AB0005C2B00085C2B00085C2B0008602B0008D6
:102AC00003008218934200D1704719700133F9E76F
:102AD000F8B5C046F8BC08BC9E467047F8B5C0467D
:082AE000F8BC08BC9E467047DB
:102AE80000000000000000000102030406070809B6
:102AF8000000000001020304030406080C1018205B
:102B0800300000007A240008842400088E2400087D
:102B1800B6240008A4240008B6240008B624000837
:102B2800B6240008AE2400085C25000866250008C5
:102B380070250008982500088625000898250008B3
:0C2B48009825000898250008902500083A
:082B540068D7FF7F01000000BB
:042B5C00E900000884
:042B6000C1000008A8
:102B6400000000000100000001000000010000005E
:102B7400010000000100000001000000010000004D
:102B84000000000000000000000000000000000041
:102B9400010000000100000001000000010000002D
:102BA4000000000000000000000000000000000021
:102BB400010000000100000001000000010000000D
:102BC4000000000000000000000000000000000001
:102BD40001000000010000000100000001000000ED
:102BE40005000000050000000500000005000000CD
:102BF40005000000050000000500000005000000BD
:102C040005000000050000000500000005000000AC
:102C1400050000000500000005000000050000009C
:102C2400050000000500000005000000060000008B
:102C34000600000006000000060000000600000078
:102C44000600000006000000060000000600000068
:102C54000600000006000000060000000600000058
:102C64000600000006000000060000000600000048
:102C74000700000007000000070000000700000034
:102C84000700000007000000070000000700000024
:102C94000700000007000000070000000700000014
:102CA4000700000007000000080000000800000002
:102CB40008000000080000000800000008000000F0
:102CC40008000000080000000800000008000000E0
:102CD40008000000080000000900000009000000CE
:102CE40009000000090000000900000009000000BC
:102CF40009000000090000000900000009000000AC
:102D0400090000000A0000000A0000000A00000098
:102D14000A0000000A0000000A0000000A00000087
:102D24000A0000000A0000000A0000000B00000076
:102D34000B0000000B0000000B0000000B00000063
:102D44000B0000000B0000000B0000000B00000053
:102D54000B0000000C0000000C0000000C00000040
:102D64000C0000000C0000000C0000000C0000002F
:102D74000C0000000D0000000D0000000D0000001C
:102D84000D0000000D0000000D0000000D0000000B
:102D94000D0000000E0000000E0000000E000000F8
:102DA4000E0000000E0000000E0000000E000000E7
:102DB4000F0000000F0000000F0000000F000000D3
:102DC4000F0000000F0000001000000010000000C1
:102DD40010000000100000001000000010000000AF
:102DE400100000001100000011000000110000009C
:102DF400110000001100000011000000120000008A
:102E04001200000012000000120000001200000076
:102E14001300000013000000130000001300000062
:102E2400130000001400000014000000140000004F
:102E3400140000001400000015000000150000003C
:102E44001500000015000000150000001600000029
:102E54001600000016000000160000001600000016
:102E64001700000017000000170000001700000002
:102E740018000000180000001800000018000000EE
:102E840019000000190000001900000019000000DA
:102E94001A0000001A0000001A0000001A000000C6
:102EA4001B0000001B0000001B0000001B000000B2
:102EB4001C0000001C0000001C0000001D0000009D
:102EC4001D0000001D0000001D0000001E00000089
:102ED4001E0000001E0000001F0000001F00000074
:102EE4001F0000002000000020000000200000005F
:102EF400210000002100000021000000210000004A
:102F04002200000022000000230000002300000033
:102F1400230000002400000024000000240000001E
:102F24002500000025000000250000002600000008
:102F340026000000270000002700000027000000F2
:102F440028000000280000002900000029000000DB
:102F5400290000002A0000002A0000002B000000C5
:102F64002B0000002B0000002C0000002C000000AF
:102F74002D0000002D0000002E0000002E00000097
:102F84002F0000002F00000030000000300000007F
:102F94003000000031000000310000003200000069
:102FA4003200000033000000330000003400000051
:102FB4003500000035000000360000003600000037
:102FC400370000003700000038000000380000001F
:102FD40039000000390000003A0000003B00000006
:102FE4003B0000003C0000003C0000003D000000ED
:102FF4003E0000003E0000003F00000040000000D2
:1030040040000000410000004100000042000000B8
:10301400430000004300000044000000450000009D
:103024004600000046000000470000004800000081
:1030340048000000490000004A0000004B00000066
:103044004B0000004C0000004D0000004E0000004A
:103054004E0000004F00000050000000510000002E
:103064005200000052000000530000005400000011
:1030740055000000560000005700000057000000F3
:1030840058000000590000005A0000005B000000D6
:103094005C0000005D0000005E0000005F000000B6
:1030A4006000000061000000620000006300000096
:1030B4006400000065000000660000006700000076
:1030C40068000000690000006A0000006B00000056
:1030D4006C0000006D0000006E0000006F00000036
:1030E4007000000071000000730000007400000014
:1030F40075000000760000007700000078000000F2
:103104007A0000007B0000007C0000007D000000CD
:103114007F000000800000008100000083000000A8
:103124008400000085000000860000008800000084
:10313400890000008B0000008C0000008D0000005E
:103144008F00000090000000920000009300000037
:10315400950000009600000098000000990000000F
:103164009B0000009C0000009E0000009F000000E7
:10317400A1000000A3000000A4000000A6000000BD
:10318400A8000000A9000000AB000000AD00000092
:10319400AE000000B0000000B2000000B400000067
:1031A400B6000000B7000000B9000000BB0000003A
:1031B400BD000000BF000000C1000000C30000000B
:1031C400C5000000C7000000C9000000CB000000DB
:1031D400CD000000CF000000D1000000D3000000AB
:1031E400D5000000D7000000D9000000DC0000007A
:1031F400DE000000E0000000E2000000E400000047
:10320400E7000000E9000000EB000000EE00000011
:10321400F0000000F3000000F5000000F8000000DA
:10322400FA000000FA000000F8000000F5000000B9
:10323400F3000000F0000000EE000000EB000000CE
:10324400E9000000E7000000E4000000E2000000E4
:10325400E0000000DE000000DC000000D9000000F7
:10326400D7000000D5000000D3000000D10000000A
:10327400CF000000CD000000CB000000C90000001A
:10328400C7000000C5000000C3000000C10000002A
:10329400BF000000BD000000BB000000B90000003A
:1032A400B7000000B6000000B4000000B200000047
:1032B400B0000000AE000000AD000000AB00000054
:1032C400A9000000A8000000A6000000A40000005F
:1032D400A3000000A10000009F0000009E00000069
:1032E4009C0000009B000000990000009800000072
:1032F400960000009500000093000000920000007A
:10330400900000008F0000008D0000008C00000081
:103314008B00000089000000880000008600000087
:10332400850000008400000083000000810000008C
:10333400800000007F0000007D0000007C00000091
:103344007B0000007A000000780000007700000095
:103354007600000075000000740000007300000097
:1033640071000000700000006F0000006E0000009B
:103374006D0000006C0000006B0000006A0000009B
:10338400690000006800000067000000660000009B
:10339400650000006400000063000000620000009B
:1033A40061000000600000005F0000005E0000009B
:1033B4005D0000005C0000005B0000005A0000009B
:1033C400590000005800000057000000570000009A
:1033D4005600000055000000540000005300000097
:1033E4005200000052000000510000005000000094
:1033F4004F0000004E0000004E0000004D00000091
:103404004C0000004B0000004B0000004A0000008C
:103414004900000048000000480000004700000088
:103424004600000046000000450000004400000083
:10343400430000004300000042000000410000007F
:103444004100000040000000400000003F00000078
:103454003E0000003E0000003D0000003C00000073
:103464003C0000003B0000003B0000003A0000006C
:103474003900000039000000380000003800000066
:10348400370000003700000036000000360000005E
:103494003500000035000000340000003300000057
:1034A4003300000032000000320000003100000050
:1034B4003100000030000000300000003000000047
:1034C4002F0000002F0000002E0000002E0000003E
:1034D4002D0000002D0000002C0000002C00000036
:1034E4002B0000002B0000002B0000002A0000002D
:1034F4002A00000029000000290000002900000023
:103504002800000028000000270000002700000019
:10351400270000002600000026000000250000000F
:103524002500000025000000240000002400000005
:1035340024000000230000002300000023000000FA
:1035440022000000220000002100000021000000F1
:1035540021000000210000002000000020000000E5
:10356400200000001F0000001F0000001F000000DA
:103574001E0000001E0000001E0000001D000000D0
:103584001D0000001D0000001D0000001C000000C4
:103594001C0000001C0000001B0000001B000000B9
:1035A4001B0000001B0000001A0000001A000000AD
:1035B4001A0000001A0000001900000019000000A1
:1035C4001900000019000000180000001800000095
:1035D4001800000018000000170000001700000089
:1035E400170000001700000016000000160000007D
:1035F4001600000016000000160000001500000070
:103604001500000015000000150000001500000062
:103614001400000014000000140000001400000056
:103624001400000013000000130000001300000049
:10363400130000001300000012000000120000003C
:10364400120000001200000012000000110000002F
:103654001100000011000000110000001100000022
:103664001100000010000000100000001000000015
:103674001000000010000000100000001000000006
:103684000F0000000F0000000F0000000F000000FA
:103694000F0000000F0000000E0000000E000000EC
:1036A4000E0000000E0000000E0000000E000000DE
:1036B4000E0000000D0000000D0000000D000000D1
:1036C4000D0000000D0000000D0000000D000000C2
:1036D4000D0000000C0000000C0000000C000000B5
:1036E4000C0000000C0000000C0000000C000000A6
:1036F4000C0000000B0000000B0000000B00000099
:103704000B0000000B0000000B0000000B00000089
:103714000B0000000B0000000B0000000A0000007A
:103724000A0000000A0000000A0000000A0000006D
:103734000A0000000A0000000A0000000A0000005D
:103744000A00000009000000090000000900000050
:103754000900000009000000090000000900000041
:103764000900000009000000090000000900000031
:103774000800000008000000080000000800000025
:103784000800000008000000080000000800000015
:103794000800000008000000080000000800000005
:1037A40007000000070000000700000007000000F9
:1037B40007000000070000000700000007000000E9
:1037C40007000000070000000700000007000000D9
:1037D40007000000070000000600000006000000CB
:1037E40006000000060000000600000006000000BD
:1037F40006000000060000000600000006000000AD
:10380400060000000600000006000000060000009C
:10381400060000000600000006000000050000008D
:103824000500000005000000050000000500000080
:103834000500000005000000050000000500000070
:103844000500000005000000050000000500000060
:103854000500000005000000050000000500000050
:103864000500000005000000000020000400000026
:04387400010000004F
:0400000508000B09DB
:00000001FF
